{
    "contractName": "Ghost",
    "abi": [
        {
            "inputs": [],
            "stateMutability": "nonpayable",
            "type": "constructor"
        },
        {
            "inputs": [],
            "name": "ApprovalCallerNotOwnerNorApproved",
            "type": "error"
        },
        {
            "inputs": [],
            "name": "ApprovalQueryForNonexistentToken",
            "type": "error"
        },
        {
            "inputs": [],
            "name": "ApprovalToCurrentOwner",
            "type": "error"
        },
        {
            "inputs": [],
            "name": "ApproveToCaller",
            "type": "error"
        },
        {
            "inputs": [],
            "name": "BalanceQueryForZeroAddress",
            "type": "error"
        },
        {
            "inputs": [],
            "name": "MintToZeroAddress",
            "type": "error"
        },
        {
            "inputs": [],
            "name": "MintZeroQuantity",
            "type": "error"
        },
        {
            "inputs": [],
            "name": "OwnerIndexOutOfBounds",
            "type": "error"
        },
        {
            "inputs": [],
            "name": "OwnerQueryForNonexistentToken",
            "type": "error"
        },
        {
            "inputs": [],
            "name": "TokenIndexOutOfBounds",
            "type": "error"
        },
        {
            "inputs": [],
            "name": "TransferCallerNotOwnerNorApproved",
            "type": "error"
        },
        {
            "inputs": [],
            "name": "TransferFromIncorrectOwner",
            "type": "error"
        },
        {
            "inputs": [],
            "name": "TransferToNonERC721ReceiverImplementer",
            "type": "error"
        },
        {
            "inputs": [],
            "name": "TransferToZeroAddress",
            "type": "error"
        },
        {
            "anonymous": false,
            "inputs": [
                {
                    "indexed": true,
                    "internalType": "address",
                    "name": "owner",
                    "type": "address"
                },
                {
                    "indexed": true,
                    "internalType": "address",
                    "name": "approved",
                    "type": "address"
                },
                {
                    "indexed": true,
                    "internalType": "uint256",
                    "name": "tokenId",
                    "type": "uint256"
                }
            ],
            "name": "Approval",
            "type": "event"
        },
        {
            "anonymous": false,
            "inputs": [
                {
                    "indexed": true,
                    "internalType": "address",
                    "name": "owner",
                    "type": "address"
                },
                {
                    "indexed": true,
                    "internalType": "address",
                    "name": "operator",
                    "type": "address"
                },
                {
                    "indexed": false,
                    "internalType": "bool",
                    "name": "approved",
                    "type": "bool"
                }
            ],
            "name": "ApprovalForAll",
            "type": "event"
        },
        {
            "anonymous": false,
            "inputs": [
                {
                    "indexed": true,
                    "internalType": "address",
                    "name": "previousOwner",
                    "type": "address"
                },
                {
                    "indexed": true,
                    "internalType": "address",
                    "name": "newOwner",
                    "type": "address"
                }
            ],
            "name": "OwnershipTransferred",
            "type": "event"
        },
        {
            "anonymous": false,
            "inputs": [
                {
                    "indexed": true,
                    "internalType": "address",
                    "name": "from",
                    "type": "address"
                },
                {
                    "indexed": true,
                    "internalType": "address",
                    "name": "to",
                    "type": "address"
                },
                {
                    "indexed": true,
                    "internalType": "uint256",
                    "name": "tokenId",
                    "type": "uint256"
                }
            ],
            "name": "Transfer",
            "type": "event"
        },
        {
            "inputs": [],
            "name": "BASE_URI",
            "outputs": [
                {
                    "internalType": "string",
                    "name": "",
                    "type": "string"
                }
            ],
            "stateMutability": "view",
            "type": "function"
        },
        {
            "inputs": [],
            "name": "DA_ACTIVE",
            "outputs": [
                {
                    "internalType": "bool",
                    "name": "",
                    "type": "bool"
                }
            ],
            "stateMutability": "view",
            "type": "function"
        },
        {
            "inputs": [],
            "name": "DA_DECREMENT",
            "outputs": [
                {
                    "internalType": "uint256",
                    "name": "",
                    "type": "uint256"
                }
            ],
            "stateMutability": "view",
            "type": "function"
        },
        {
            "inputs": [],
            "name": "DA_DECREMENT_FREQUENCY",
            "outputs": [
                {
                    "internalType": "uint256",
                    "name": "",
                    "type": "uint256"
                }
            ],
            "stateMutability": "view",
            "type": "function"
        },
        {
            "inputs": [],
            "name": "DA_ENDING_PRICE",
            "outputs": [
                {
                    "internalType": "uint256",
                    "name": "",
                    "type": "uint256"
                }
            ],
            "stateMutability": "view",
            "type": "function"
        },
        {
            "inputs": [],
            "name": "DA_FINAL_PRICE",
            "outputs": [
                {
                    "internalType": "uint256",
                    "name": "",
                    "type": "uint256"
                }
            ],
            "stateMutability": "view",
            "type": "function"
        },
        {
            "inputs": [],
            "name": "DA_QUANTITY",
            "outputs": [
                {
                    "internalType": "uint256",
                    "name": "",
                    "type": "uint256"
                }
            ],
            "stateMutability": "view",
            "type": "function"
        },
        {
            "inputs": [],
            "name": "DA_STARTING_PRICE",
            "outputs": [
                {
                    "internalType": "uint256",
                    "name": "",
                    "type": "uint256"
                }
            ],
            "stateMutability": "view",
            "type": "function"
        },
        {
            "inputs": [],
            "name": "DA_STARTING_TIMESTAMP",
            "outputs": [
                {
                    "internalType": "uint256",
                    "name": "",
                    "type": "uint256"
                }
            ],
            "stateMutability": "view",
            "type": "function"
        },
        {
            "inputs": [],
            "name": "DEV_FUND",
            "outputs": [
                {
                    "internalType": "address",
                    "name": "",
                    "type": "address"
                }
            ],
            "stateMutability": "view",
            "type": "function"
        },
        {
            "inputs": [],
            "name": "FOUNDER_ADD",
            "outputs": [
                {
                    "internalType": "address",
                    "name": "",
                    "type": "address"
                }
            ],
            "stateMutability": "view",
            "type": "function"
        },
        {
            "inputs": [],
            "name": "PUBLIC_WL_MINTED",
            "outputs": [
                {
                    "internalType": "uint16",
                    "name": "",
                    "type": "uint16"
                }
            ],
            "stateMutability": "view",
            "type": "function"
        },
        {
            "inputs": [],
            "name": "REVEALED",
            "outputs": [
                {
                    "internalType": "bool",
                    "name": "",
                    "type": "bool"
                }
            ],
            "stateMutability": "view",
            "type": "function"
        },
        {
            "inputs": [],
            "name": "WL_QUANTITY",
            "outputs": [
                {
                    "internalType": "uint256",
                    "name": "",
                    "type": "uint256"
                }
            ],
            "stateMutability": "view",
            "type": "function"
        },
        {
            "inputs": [],
            "name": "WL_STARTING_TIMESTAMP",
            "outputs": [
                {
                    "internalType": "uint256",
                    "name": "",
                    "type": "uint256"
                }
            ],
            "stateMutability": "view",
            "type": "function"
        },
        {
            "inputs": [],
            "name": "WLprice",
            "outputs": [
                {
                    "internalType": "uint256",
                    "name": "",
                    "type": "uint256"
                }
            ],
            "stateMutability": "view",
            "type": "function"
        },
        {
            "inputs": [
                {
                    "internalType": "address",
                    "name": "to",
                    "type": "address"
                },
                {
                    "internalType": "uint256",
                    "name": "tokenId",
                    "type": "uint256"
                }
            ],
            "name": "approve",
            "outputs": [],
            "stateMutability": "nonpayable",
            "type": "function"
        },
        {
            "inputs": [
                {
                    "internalType": "address",
                    "name": "owner",
                    "type": "address"
                }
            ],
            "name": "balanceOf",
            "outputs": [
                {
                    "internalType": "uint256",
                    "name": "",
                    "type": "uint256"
                }
            ],
            "stateMutability": "view",
            "type": "function"
        },
        {
            "inputs": [],
            "name": "baseExtension",
            "outputs": [
                {
                    "internalType": "string",
                    "name": "",
                    "type": "string"
                }
            ],
            "stateMutability": "view",
            "type": "function"
        },
        {
            "inputs": [],
            "name": "currentPrice",
            "outputs": [
                {
                    "internalType": "uint256",
                    "name": "",
                    "type": "uint256"
                }
            ],
            "stateMutability": "view",
            "type": "function"
        },
        {
            "inputs": [],
            "name": "devMint",
            "outputs": [],
            "stateMutability": "nonpayable",
            "type": "function"
        },
        {
            "inputs": [
                {
                    "internalType": "uint256",
                    "name": "tokenId",
                    "type": "uint256"
                }
            ],
            "name": "getApproved",
            "outputs": [
                {
                    "internalType": "address",
                    "name": "",
                    "type": "address"
                }
            ],
            "stateMutability": "view",
            "type": "function"
        },
        {
            "inputs": [
                {
                    "internalType": "address",
                    "name": "owner",
                    "type": "address"
                },
                {
                    "internalType": "address",
                    "name": "operator",
                    "type": "address"
                }
            ],
            "name": "isApprovedForAll",
            "outputs": [
                {
                    "internalType": "bool",
                    "name": "",
                    "type": "bool"
                }
            ],
            "stateMutability": "view",
            "type": "function"
        },
        {
            "inputs": [
                {
                    "internalType": "uint8",
                    "name": "quantity",
                    "type": "uint8"
                }
            ],
            "name": "mintDutchAuction",
            "outputs": [],
            "stateMutability": "payable",
            "type": "function"
        },
        {
            "inputs": [
                {
                    "internalType": "bytes",
                    "name": "signature",
                    "type": "bytes"
                }
            ],
            "name": "mintWL",
            "outputs": [],
            "stateMutability": "payable",
            "type": "function"
        },
        {
            "inputs": [],
            "name": "name",
            "outputs": [
                {
                    "internalType": "string",
                    "name": "",
                    "type": "string"
                }
            ],
            "stateMutability": "view",
            "type": "function"
        },
        {
            "inputs": [],
            "name": "owner",
            "outputs": [
                {
                    "internalType": "address",
                    "name": "",
                    "type": "address"
                }
            ],
            "stateMutability": "view",
            "type": "function"
        },
        {
            "inputs": [
                {
                    "internalType": "uint256",
                    "name": "tokenId",
                    "type": "uint256"
                }
            ],
            "name": "ownerOf",
            "outputs": [
                {
                    "internalType": "address",
                    "name": "",
                    "type": "address"
                }
            ],
            "stateMutability": "view",
            "type": "function"
        },
        {
            "inputs": [
                {
                    "internalType": "address",
                    "name": "user",
                    "type": "address"
                }
            ],
            "name": "readTeamMint",
            "outputs": [
                {
                    "internalType": "uint256",
                    "name": "",
                    "type": "uint256"
                }
            ],
            "stateMutability": "view",
            "type": "function"
        },
        {
            "inputs": [],
            "name": "renounceOwnership",
            "outputs": [],
            "stateMutability": "nonpayable",
            "type": "function"
        },
        {
            "inputs": [
                {
                    "internalType": "address",
                    "name": "from",
                    "type": "address"
                },
                {
                    "internalType": "address",
                    "name": "to",
                    "type": "address"
                },
                {
                    "internalType": "uint256",
                    "name": "tokenId",
                    "type": "uint256"
                }
            ],
            "name": "safeTransferFrom",
            "outputs": [],
            "stateMutability": "nonpayable",
            "type": "function"
        },
        {
            "inputs": [
                {
                    "internalType": "address",
                    "name": "from",
                    "type": "address"
                },
                {
                    "internalType": "address",
                    "name": "to",
                    "type": "address"
                },
                {
                    "internalType": "uint256",
                    "name": "tokenId",
                    "type": "uint256"
                },
                {
                    "internalType": "bytes",
                    "name": "_data",
                    "type": "bytes"
                }
            ],
            "name": "safeTransferFrom",
            "outputs": [],
            "stateMutability": "nonpayable",
            "type": "function"
        },
        {
            "inputs": [
                {
                    "internalType": "address",
                    "name": "operator",
                    "type": "address"
                },
                {
                    "internalType": "bool",
                    "name": "approved",
                    "type": "bool"
                }
            ],
            "name": "setApprovalForAll",
            "outputs": [],
            "stateMutability": "nonpayable",
            "type": "function"
        },
        {
            "inputs": [
                {
                    "internalType": "string",
                    "name": "_baseURI",
                    "type": "string"
                }
            ],
            "name": "setBaseURI",
            "outputs": [],
            "stateMutability": "nonpayable",
            "type": "function"
        },
        {
            "inputs": [
                {
                    "internalType": "bool",
                    "name": "daActive",
                    "type": "bool"
                }
            ],
            "name": "setDutchActionActive",
            "outputs": [],
            "stateMutability": "nonpayable",
            "type": "function"
        },
        {
            "inputs": [
                {
                    "internalType": "bool",
                    "name": "_revealed",
                    "type": "bool"
                }
            ],
            "name": "setRevealData",
            "outputs": [],
            "stateMutability": "nonpayable",
            "type": "function"
        },
        {
            "inputs": [
                {
                    "internalType": "address",
                    "name": "signer",
                    "type": "address"
                }
            ],
            "name": "setSigners",
            "outputs": [],
            "stateMutability": "nonpayable",
            "type": "function"
        },
        {
            "inputs": [
                {
                    "internalType": "uint256",
                    "name": "startTime",
                    "type": "uint256"
                }
            ],
            "name": "setStartTime",
            "outputs": [],
            "stateMutability": "nonpayable",
            "type": "function"
        },
        {
            "inputs": [
                {
                    "internalType": "address[]",
                    "name": "_addresses",
                    "type": "address[]"
                },
                {
                    "internalType": "uint8",
                    "name": "amount",
                    "type": "uint8"
                }
            ],
            "name": "setTeamMint",
            "outputs": [],
            "stateMutability": "nonpayable",
            "type": "function"
        },
        {
            "inputs": [
                {
                    "internalType": "uint16",
                    "name": "quantity",
                    "type": "uint16"
                }
            ],
            "name": "setWLSupply",
            "outputs": [],
            "stateMutability": "nonpayable",
            "type": "function"
        },
        {
            "inputs": [
                {
                    "internalType": "bytes4",
                    "name": "interfaceId",
                    "type": "bytes4"
                }
            ],
            "name": "supportsInterface",
            "outputs": [
                {
                    "internalType": "bool",
                    "name": "",
                    "type": "bool"
                }
            ],
            "stateMutability": "view",
            "type": "function"
        },
        {
            "inputs": [],
            "name": "symbol",
            "outputs": [
                {
                    "internalType": "string",
                    "name": "",
                    "type": "string"
                }
            ],
            "stateMutability": "view",
            "type": "function"
        },
        {
            "inputs": [
                {
                    "internalType": "uint8",
                    "name": "quantity",
                    "type": "uint8"
                }
            ],
            "name": "teamMint",
            "outputs": [],
            "stateMutability": "payable",
            "type": "function"
        },
        {
            "inputs": [
                {
                    "internalType": "uint256",
                    "name": "index",
                    "type": "uint256"
                }
            ],
            "name": "tokenByIndex",
            "outputs": [
                {
                    "internalType": "uint256",
                    "name": "",
                    "type": "uint256"
                }
            ],
            "stateMutability": "view",
            "type": "function"
        },
        {
            "inputs": [
                {
                    "internalType": "address",
                    "name": "owner",
                    "type": "address"
                },
                {
                    "internalType": "uint256",
                    "name": "index",
                    "type": "uint256"
                }
            ],
            "name": "tokenOfOwnerByIndex",
            "outputs": [
                {
                    "internalType": "uint256",
                    "name": "",
                    "type": "uint256"
                }
            ],
            "stateMutability": "view",
            "type": "function"
        },
        {
            "inputs": [
                {
                    "internalType": "uint256",
                    "name": "_tokenId",
                    "type": "uint256"
                }
            ],
            "name": "tokenURI",
            "outputs": [
                {
                    "internalType": "string",
                    "name": "",
                    "type": "string"
                }
            ],
            "stateMutability": "view",
            "type": "function"
        },
        {
            "inputs": [],
            "name": "totalSupply",
            "outputs": [
                {
                    "internalType": "uint256",
                    "name": "",
                    "type": "uint256"
                }
            ],
            "stateMutability": "view",
            "type": "function"
        },
        {
            "inputs": [
                {
                    "internalType": "address",
                    "name": "from",
                    "type": "address"
                },
                {
                    "internalType": "address",
                    "name": "to",
                    "type": "address"
                },
                {
                    "internalType": "uint256",
                    "name": "tokenId",
                    "type": "uint256"
                }
            ],
            "name": "transferFrom",
            "outputs": [],
            "stateMutability": "nonpayable",
            "type": "function"
        },
        {
            "inputs": [
                {
                    "internalType": "address",
                    "name": "newOwner",
                    "type": "address"
                }
            ],
            "name": "transferOwnership",
            "outputs": [],
            "stateMutability": "nonpayable",
            "type": "function"
        },
        {
            "inputs": [
                {
                    "internalType": "address",
                    "name": "",
                    "type": "address"
                }
            ],
            "name": "userToHasMintedPublicWL",
            "outputs": [
                {
                    "internalType": "bool",
                    "name": "",
                    "type": "bool"
                }
            ],
            "stateMutability": "view",
            "type": "function"
        },
        {
            "inputs": [
                {
                    "internalType": "address",
                    "name": "user",
                    "type": "address"
                }
            ],
            "name": "userToTokenBatch",
            "outputs": [
                {
                    "components": [
                        {
                            "internalType": "uint128",
                            "name": "pricePaid",
                            "type": "uint128"
                        },
                        {
                            "internalType": "uint8",
                            "name": "quantityMinted",
                            "type": "uint8"
                        }
                    ],
                    "internalType": "struct Ghost.TokenBatchPriceData[]",
                    "name": "",
                    "type": "tuple[]"
                }
            ],
            "stateMutability": "view",
            "type": "function"
        },
        {
            "inputs": [
                {
                    "internalType": "address",
                    "name": "",
                    "type": "address"
                },
                {
                    "internalType": "uint256",
                    "name": "",
                    "type": "uint256"
                }
            ],
            "name": "userToTokenBatchPriceData",
            "outputs": [
                {
                    "internalType": "uint128",
                    "name": "pricePaid",
                    "type": "uint128"
                },
                {
                    "internalType": "uint8",
                    "name": "quantityMinted",
                    "type": "uint8"
                }
            ],
            "stateMutability": "view",
            "type": "function"
        },
        {
            "inputs": [],
            "name": "withdrawFunds",
            "outputs": [],
            "stateMutability": "nonpayable",
            "type": "function"
        }
    ],
    "bytecode": "60c06040526005608081905264173539b7b760d91b60a0908152620000289160089190620001c3565b506009805460ff19169055671bc16d674ec80000600a5567016345785d8a0000600b5566b1a2bc2ec50000600c5561012c600d5563626bb965600e8190556704db732547630000601055610fa06011556117706012556013805462010000600160b01b0319169055601480546001600160a01b031916731111111111111111111111111111111111111111179055620000c5906201518062000269565b6015556019805460ff19169055348015620000df57600080fd5b506040518060400160405280600a815260200169383937b532b1ba282c2760b11b8152506040518060400160405280600581526020016411d213d4d560da1b8152506200013b620001356200016f60201b60201c565b62000173565b815162000150906002906020850190620001c3565b50805162000166906003906020840190620001c3565b505050620002cb565b3390565b600080546001600160a01b038381166001600160a01b0319831681178455604051919092169283917f8be0079c531659141344cd1fd0a4f28419497f9722a3daafe3b4186f6b6457e09190a35050565b828054620001d1906200028e565b90600052602060002090601f016020900481019282620001f5576000855562000240565b82601f106200021057805160ff191683800117855562000240565b8280016001018555821562000240579182015b828111156200024057825182559160200191906001019062000223565b506200024e92915062000252565b5090565b5b808211156200024e576000815560010162000253565b600082198211156200028957634e487b7160e01b81526011600452602481fd5b500190565b600181811c90821680620002a357607f821691505b60208210811415620002c557634e487b7160e01b600052602260045260246000fd5b50919050565b61319780620002db6000396000f3fe60806040526004361061031a5760003560e01c806378615c32116101ab578063a76a9587116100f7578063e397950811610095578063f2fde38b1161006f578063f2fde38b14610932578063f34184fa14610952578063f5998ed814610972578063f89d2e4d1461098857600080fd5b8063e3979508146108bd578063e985e9c5146108d3578063ea18dc5c1461091c57600080fd5b8063b88d4fde116100d1578063b88d4fde14610853578063c668286214610873578063c87b56dd14610888578063dbddb26a146108a857600080fd5b8063a76a958714610803578063b47876ea1461081d578063b81293711461083d57600080fd5b80638e98e9df1161016457806397f65c081161013e57806397f65c08146107a2578063996e52b5146107b85780639d1b464a146107ce578063a22cb465146107e357600080fd5b80638e98e9df14610747578063944c30651461076d57806395d89b411461078d57600080fd5b806378615c32146106a85780637b671780146106be5780637c69e207146106d157806383e6848d146106e6578063865bb409146106f95780638da5cb5b1461072957600080fd5b80632958f9991161026a57806342842e0e1161022357806355f804b3116101fd57806355f804b3146106335780636352211e1461065357806370a0823114610673578063715018a61461069357600080fd5b806342842e0e146105e05780634bc0a305146106005780634f6ccce71461061357600080fd5b80632958f9991461050f5780632b4519fb1461052f5780632f745c591461057057806333083ad7146105905780633e0a322d146105a657806340348fbb146105c657600080fd5b8063165df4e5116102d75780631f85bf05116102b15780631f85bf051461048c578063239b9640146104ac57806323b872dd146104da57806324600fc3146104fa57600080fd5b8063165df4e51461041d57806318160ddd146104415780631f7b3a251461045657600080fd5b806301ffc9a71461031f57806306fdde0314610354578063081812fc14610376578063094491fe146103ae578063095ea7b3146103d057806315979e67146103f0575b600080fd5b34801561032b57600080fd5b5061033f61033a366004612c8b565b61099e565b60405190151581526020015b60405180910390f35b34801561036057600080fd5b50610369610a0b565b60405161034b9190612f57565b34801561038257600080fd5b50610396610391366004612d96565b610a9d565b6040516001600160a01b03909116815260200161034b565b3480156103ba57600080fd5b506103ce6103c9366004612c71565b610ae1565b005b3480156103dc57600080fd5b506103ce6103eb366004612bca565b610b27565b3480156103fc57600080fd5b5061041061040b366004612a9b565b610bb5565b60405161034b9190612efc565b34801561042957600080fd5b5061043360125481565b60405190815260200161034b565b34801561044d57600080fd5b50610433610c41565b34801561046257600080fd5b50610433610471366004612a9b565b6001600160a01b031660009081526018602052604090205490565b34801561049857600080fd5b506103ce6104a7366004612c71565b610c60565b3480156104b857600080fd5b506013546104c79061ffff1681565b60405161ffff909116815260200161034b565b3480156104e657600080fd5b506103ce6104f5366004612aee565b610c9d565b34801561050657600080fd5b506103ce610ca8565b34801561051b57600080fd5b506103ce61052a366004612d74565b610d7f565b34801561053b57600080fd5b5061054f61054a366004612bca565b610db2565b604080516001600160801b03909316835260ff90911660208301520161034b565b34801561057c57600080fd5b5061043361058b366004612bca565b610df5565b34801561059c57600080fd5b5061043360155481565b3480156105b257600080fd5b506103ce6105c1366004612d96565b610ef1565b3480156105d257600080fd5b5060095461033f9060ff1681565b3480156105ec57600080fd5b506103ce6105fb366004612aee565b610f20565b6103ce61060e366004612cc3565b610f3b565b34801561061f57600080fd5b5061043361062e366004612d96565b6112bd565b34801561063f57600080fd5b506103ce61064e366004612d2f565b611369565b34801561065f57600080fd5b5061039661066e366004612d96565b6113a6565b34801561067f57600080fd5b5061043361068e366004612a9b565b6113b8565b34801561069f57600080fd5b506103ce611406565b3480156106b457600080fd5b50610433600e5481565b6103ce6106cc366004612dae565b61143c565b3480156106dd57600080fd5b506103ce611552565b6103ce6106f4366004612dae565b6115da565b34801561070557600080fd5b5061033f610714366004612a9b565b60176020526000908152604090205460ff1681565b34801561073557600080fd5b506000546001600160a01b0316610396565b34801561075357600080fd5b50601354610396906201000090046001600160a01b031681565b34801561077957600080fd5b506103ce610788366004612bf3565b61190e565b34801561079957600080fd5b506103696119b2565b3480156107ae57600080fd5b50610433600b5481565b3480156107c457600080fd5b50610433600d5481565b3480156107da57600080fd5b506104336119c1565b3480156107ef57600080fd5b506103ce6107fe366004612ba1565b611a87565b34801561080f57600080fd5b5060195461033f9060ff1681565b34801561082957600080fd5b506103ce610838366004612a9b565b611b1d565b34801561084957600080fd5b50610433600c5481565b34801561085f57600080fd5b506103ce61086e366004612b29565b611b69565b34801561087f57600080fd5b50610369611b9d565b34801561089457600080fd5b506103696108a3366004612d96565b611c2b565b3480156108b457600080fd5b50610369611d05565b3480156108c957600080fd5b5061043360105481565b3480156108df57600080fd5b5061033f6108ee366004612abc565b6001600160a01b03918216600090815260076020908152604080832093909416825291909152205460ff1690565b34801561092857600080fd5b5061043360115481565b34801561093e57600080fd5b506103ce61094d366004612a9b565b611d12565b34801561095e57600080fd5b50601454610396906001600160a01b031681565b34801561097e57600080fd5b50610433600f5481565b34801561099457600080fd5b50610433600a5481565b60006001600160e01b031982166380ac58cd60e01b14806109cf57506001600160e01b03198216635b5e139f60e01b145b806109ea57506001600160e01b0319821663780e9d6360e01b145b80610a0557506301ffc9a760e01b6001600160e01b03198316145b92915050565b606060028054610a1a9061307d565b80601f0160208091040260200160405190810160405280929190818152602001828054610a469061307d565b8015610a935780601f10610a6857610100808354040283529160200191610a93565b820191906000526020600020905b815481529060010190602001808311610a7657829003601f168201915b5050505050905090565b6000610aa882611daa565b610ac5576040516333d1c03960e21b815260040160405180910390fd5b506000908152600660205260409020546001600160a01b031690565b6000546001600160a01b03163314610b145760405162461bcd60e51b8152600401610b0b90612f94565b60405180910390fd5b6009805460ff1916911515919091179055565b6000610b32826113a6565b9050806001600160a01b0316836001600160a01b03161415610b675760405163250fdee360e21b815260040160405180910390fd5b336001600160a01b03821614801590610b875750610b8581336108ee565b155b15610ba5576040516367d9dca160e11b815260040160405180910390fd5b610bb0838383611de0565b505050565b6001600160a01b0381166000908152601660209081526040808320805482518185028101850190935280835260609492939192909184015b82821015610c3657600084815260209081902060408051808201909152908401546001600160801b0381168252600160801b900460ff1681830152825260019092019101610bed565b505050509050919050565b6001546001600160801b03600160801b82048116918116919091031690565b6000546001600160a01b03163314610c8a5760405162461bcd60e51b8152600401610b0b90612f94565b6019805460ff1916911515919091179055565b610bb0838383611e3c565b6000546001600160a01b03163314610cd25760405162461bcd60e51b8152600401610b0b90612f94565b60135447906201000090046001600160a01b03166108fc612710610cf88461138861301b565b610d029190613007565b6040518115909202916000818181858888f19350505050158015610d2a573d6000803e3d6000fd5b506014546001600160a01b03166108fc612710610d498461138861301b565b610d539190613007565b6040518115909202916000818181858888f19350505050158015610d7b573d6000803e3d6000fd5b5050565b6000546001600160a01b03163314610da95760405162461bcd60e51b8152600401610b0b90612f94565b61ffff16601255565b60166020528160005260406000208181548110610dce57600080fd5b6000918252602090912001546001600160801b0381169250600160801b900460ff16905082565b6000610e00836113b8565b8210610e1f576040516306ed618760e11b815260040160405180910390fd5b6001546001600160801b0316600080805b83811015610eeb57600081815260046020908152604091829020825160608101845290546001600160a01b0381168252600160a01b81046001600160401b031692820192909252600160e01b90910460ff161580159282019290925290610e975750610ee3565b80516001600160a01b031615610eac57805192505b876001600160a01b0316836001600160a01b03161415610ee15786841415610eda57509350610a0592505050565b6001909301925b505b600101610e30565b50600080fd5b6000546001600160a01b03163314610f1b5760405162461bcd60e51b8152600401610b0b90612f94565b600e55565b610bb083838360405180602001604052806000815250611b69565b323314610f8a5760405162461bcd60e51b815260206004820152601e60248201527f5468652063616c6c657220697320616e6f7468657220636f6e747261637400006044820152606401610b0b565b6000600f5411610fdc5760405162461bcd60e51b815260206004820152601a60248201527f447574636820616374696f6e206d757374206265206f766572210000000000006044820152606401610b0b565b3360009081526017602052604090205460ff16156110485760405162461bcd60e51b8152602060048201526024808201527f43616e206f6e6c79206d696e74206f6e636520647572696e67207075626c696360448201526320574c2160e01b6064820152608401610b0b565b60155442101561109a5760405162461bcd60e51b815260206004820152601760248201527f574c20686173206e6f74207374617274656420796574210000000000000000006044820152606401610b0b565b6015546110aa9062015180612fef565b4211156110c95760405162461bcd60e51b8152600401610b0b90612f6a565b6012546013546110de9061ffff166001612fc9565b61ffff1611156111265760405162461bcd60e51b81526020600482015260136024820152724d617820737570706c79206f6620363030302160681b6044820152606401610b0b565b6111bc82828080601f016020809104026020016040519081016040528093929190818152602001838380828437600092019190915250506040517f19457468657265756d205369676e6564204d6573736167653a0a333200000000602082015233603c820152605c0191506111989050565b6040516020818303038152906040528051906020012061205990919063ffffffff16565b601b546001600160a01b039081169116146112195760405162461bcd60e51b815260206004820152601860248201527f5369676e65722061646472657373206d69736d617463682e00000000000000006044820152606401610b0b565b60105434101561126b5760405162461bcd60e51b815260206004820181905260248201527f4d7573742073656e6420656e6f7567682065746820666f7220574c204d696e746044820152606401610b0b565b336000908152601760205260408120805460ff191660011790556013805461ffff1691611297836130b8565b91906101000a81548161ffff021916908361ffff16021790555050610d7b33600161207d565b6001546000906001600160801b031681805b8281101561134f57600081815260046020908152604091829020825160608101845290546001600160a01b0381168252600160a01b81046001600160401b031692820192909252600160e01b90910460ff16151591810182905290611346578583141561133f5750949350505050565b6001909201915b506001016112cf565b506040516329c8c00760e21b815260040160405180910390fd5b6000546001600160a01b031633146113935760405162461bcd60e51b8152600401610b0b90612f94565b8051610d7b90601a906020840190612955565b60006113b182612097565b5192915050565b60006001600160a01b0382166113e1576040516323d3ad8160e21b815260040160405180910390fd5b506001600160a01b03166000908152600560205260409020546001600160401b031690565b6000546001600160a01b031633146114305760405162461bcd60e51b8152600401610b0b90612f94565b61143a60006121bb565b565b60155442101561145e5760405162461bcd60e51b8152600401610b0b90612f6a565b3360009081526018602052604090205460ff821611156114b25760405162461bcd60e51b815260206004820152600f60248201526e185b1c9958591e4818db185a5b5959608a1b6044820152606401610b0b565b6010546114c29060ff831661301b565b3410156115115760405162461bcd60e51b815260206004820181905260248201527f4d7573742073656e6420656e6f7567682065746820666f7220574c204d696e746044820152606401610b0b565b3360009081526018602052604090205461152f9060ff83169061303a565b3360008181526018602052604090209190915561154f9060ff831661207d565b50565b6000546001600160a01b0316331461157c5760405162461bcd60e51b8152600401610b0b90612f94565b60155461158c9062015180612fef565b4210156115ab5760405162461bcd60e51b8152600401610b0b90612f6a565b60006115b5610c41565b6115c19061271061303a565b60145490915061154f906001600160a01b03168261207d565b3233146116295760405162461bcd60e51b815260206004820152601e60248201527f5468652063616c6c657220697320616e6f7468657220636f6e747261637400006044820152606401610b0b565b60095460ff1615156001146116715760405162461bcd60e51b815260206004820152600e60248201526d44412069736e742061637469766560901b6044820152606401610b0b565b600e544210156116b95760405162461bcd60e51b8152602060048201526013602482015272444120686173206e6f7420737461727465642160681b6044820152606401610b0b565b6015544211156116fc5760405162461bcd60e51b815260206004820152600e60248201526d1110481a5cc8199a5b9a5cda195960921b6044820152606401610b0b565b60008160ff16118015611712575060048160ff16105b61175e5760405162461bcd60e51b815260206004820152601960248201527f43616e206f6e6c79206d696e74206d61782032204e46547321000000000000006044820152606401610b0b565b60006117686119c1565b90506117778160ff841661301b565b3410156117c65760405162461bcd60e51b815260206004820152601860248201527f446964206e6f742073656e6420656e6f756768206574682e00000000000000006044820152606401610b0b565b6011548260ff166117d5610c41565b6117df9190612fef565b111561182d5760405162461bcd60e51b815260206004820152601a60248201527f4d617820737570706c7920666f722044412072656163686564210000000000006044820152606401610b0b565b6011548260ff1661183c610c41565b6118469190612fef565b141561188e57600f81905560105461185f606483613007565b61186a90603261301b565b101561188e576064600f5461187f9190613007565b61188a90603261301b565b6010555b33600081815260166020908152604080832081518083019092526001600160801b03348116835260ff80891684860181815284546001810186559488529590962093519390920180549451909216600160801b0270ffffffffffffffffffffffffffffffffff19909416921691909117919091179055610d7b919061207d565b6000546001600160a01b031633146119385760405162461bcd60e51b8152600401610b0b90612f94565b60005b828110156119ac578160ff166018600086868581811061196b57634e487b7160e01b600052603260045260246000fd5b90506020020160208101906119809190612a9b565b6001600160a01b03168152602081019190915260400160002055806119a4816130da565b91505061193b565b50505050565b606060038054610a1a9061307d565b6000600e54421015611a0b5760405162461bcd60e51b8152602060048201526013602482015272444120686173206e6f7420737461727465642160681b6044820152606401610b0b565b600f5415611a1a5750600f5490565b6000600e5442611a2a919061303a565b90506000600d5482611a3c9190613007565b90506000600c5482611a4e919061301b565b9050600b54600a54611a60919061303a565b8110611a7157600b54935050505090565b80600a54611a7f919061303a565b935050505090565b6001600160a01b038216331415611ab15760405163b06307db60e01b815260040160405180910390fd5b3360008181526007602090815260408083206001600160a01b03871680855290835292819020805460ff191686151590811790915590519081529192917f17307eab39ab6107e8899845ad3d59bd9653f200f220920489ca2b5937696c31910160405180910390a35050565b6000546001600160a01b03163314611b475760405162461bcd60e51b8152600401610b0b90612f94565b601b80546001600160a01b0319166001600160a01b0392909216919091179055565b611b74848484611e3c565b611b808484848461220b565b6119ac576040516368d2bf6b60e11b815260040160405180910390fd5b60088054611baa9061307d565b80601f0160208091040260200160405190810160405280929190818152602001828054611bd69061307d565b8015611c235780601f10611bf857610100808354040283529160200191611c23565b820191906000526020600020905b815481529060010190602001808311611c0657829003601f168201915b505050505081565b60195460609060ff1615611c6e57601a611c448361231a565b6008604051602001611c5893929190612e8c565b6040516020818303038152906040529050919050565b601a8054611c7b9061307d565b80601f0160208091040260200160405190810160405280929190818152602001828054611ca79061307d565b8015611cf45780601f10611cc957610100808354040283529160200191611cf4565b820191906000526020600020905b815481529060010190602001808311611cd757829003601f168201915b50505050509050919050565b919050565b601a8054611baa9061307d565b6000546001600160a01b03163314611d3c5760405162461bcd60e51b8152600401610b0b90612f94565b6001600160a01b038116611da15760405162461bcd60e51b815260206004820152602660248201527f4f776e61626c653a206e6577206f776e657220697320746865207a65726f206160448201526564647265737360d01b6064820152608401610b0b565b61154f816121bb565b6001546000906001600160801b031682108015610a05575050600090815260046020526040902054600160e01b900460ff161590565b60008281526006602052604080822080546001600160a01b0319166001600160a01b0387811691821790925591518593918516917f8c5be1e5ebec7d5bd14f71427d1e84f3dd0314c0f7b2291e5b200ac8c7c3b92591a4505050565b6000611e4782612097565b80519091506000906001600160a01b0316336001600160a01b03161480611e7557508151611e7590336108ee565b80611e90575033611e8584610a9d565b6001600160a01b0316145b905080611eb057604051632ce44b5f60e11b815260040160405180910390fd5b846001600160a01b031682600001516001600160a01b031614611ee55760405162a1148160e81b815260040160405180910390fd5b6001600160a01b038416611f0c57604051633a954ecd60e21b815260040160405180910390fd5b611f1c6000848460000151611de0565b6001600160a01b038581166000908152600560209081526040808320805467ffffffffffffffff198082166001600160401b0392831660001901831617909255898616808652838620805493841693831660019081018416949094179055898652600490945282852080546001600160e01b031916909417600160a01b42909216919091021790925590860180835291205490911661200f576001546001600160801b031681101561200f57825160008281526004602090815260409091208054918601516001600160401b0316600160a01b026001600160e01b03199092166001600160a01b03909316929092171790555b5082846001600160a01b0316866001600160a01b03167fddf252ad1be2c89b69c2b068fc378daa952ba7f163c4a11628f55a4df523b3ef60405160405180910390a45b5050505050565b60008060006120688585612433565b91509150612075816124a3565b509392505050565b610d7b8282604051806020016040528060008152506126a4565b604080516060810182526000808252602082018190529181019190915260015482906001600160801b03168110156121a257600081815260046020908152604091829020825160608101845290546001600160a01b0381168252600160a01b81046001600160401b031692820192909252600160e01b90910460ff161515918101829052906121a05780516001600160a01b031615612137579392505050565b5060001901600081815260046020908152604091829020825160608101845290546001600160a01b038116808352600160a01b82046001600160401b031693830193909352600160e01b900460ff161515928101929092521561219b579392505050565b612137565b505b604051636f96cda160e11b815260040160405180910390fd5b600080546001600160a01b038381166001600160a01b0319831681178455604051919092169283917f8be0079c531659141344cd1fd0a4f28419497f9722a3daafe3b4186f6b6457e09190a35050565b60006001600160a01b0384163b1561230e57604051630a85bd0160e11b81526001600160a01b0385169063150b7a029061224f903390899088908890600401612ebf565b602060405180830381600087803b15801561226957600080fd5b505af1925050508015612299575060408051601f3d908101601f1916820190925261229691810190612ca7565b60015b6122f4573d8080156122c7576040519150601f19603f3d011682016040523d82523d6000602084013e6122cc565b606091505b5080516122ec576040516368d2bf6b60e11b815260040160405180910390fd5b805181602001fd5b6001600160e01b031916630a85bd0160e11b149050612312565b5060015b949350505050565b60608161233e5750506040805180820190915260018152600360fc1b602082015290565b8160005b81156123685780612352816130da565b91506123619050600a83613007565b9150612342565b6000816001600160401b0381111561239057634e487b7160e01b600052604160045260246000fd5b6040519080825280601f01601f1916602001820160405280156123ba576020820181803683370190505b5090505b8415612312576123cf60018361303a565b91506123dc600a866130f5565b6123e7906030612fef565b60f81b81838151811061240a57634e487b7160e01b600052603260045260246000fd5b60200101906001600160f81b031916908160001a90535061242c600a86613007565b94506123be565b60008082516041141561246a5760208301516040840151606085015160001a61245e878285856126b1565b9450945050505061249c565b825160401415612494576020830151604084015161248986838361279e565b93509350505061249c565b506000905060025b9250929050565b60008160048111156124c557634e487b7160e01b600052602160045260246000fd5b14156124ce5750565b60018160048111156124f057634e487b7160e01b600052602160045260246000fd5b141561253e5760405162461bcd60e51b815260206004820152601860248201527f45434453413a20696e76616c6964207369676e617475726500000000000000006044820152606401610b0b565b600281600481111561256057634e487b7160e01b600052602160045260246000fd5b14156125ae5760405162461bcd60e51b815260206004820152601f60248201527f45434453413a20696e76616c6964207369676e6174757265206c656e677468006044820152606401610b0b565b60038160048111156125d057634e487b7160e01b600052602160045260246000fd5b14156126295760405162461bcd60e51b815260206004820152602260248201527f45434453413a20696e76616c6964207369676e6174757265202773272076616c604482015261756560f01b6064820152608401610b0b565b600481600481111561264b57634e487b7160e01b600052602160045260246000fd5b141561154f5760405162461bcd60e51b815260206004820152602260248201527f45434453413a20696e76616c6964207369676e6174757265202776272076616c604482015261756560f01b6064820152608401610b0b565b610bb083838360016127cd565b6000807f7fffffffffffffffffffffffffffffff5d576e7357a4501ddfe92f46681b20a08311156126e85750600090506003612795565b8460ff16601b1415801561270057508460ff16601c14155b156127115750600090506004612795565b6040805160008082526020820180845289905260ff881692820192909252606081018690526080810185905260019060a0016020604051602081039080840390855afa158015612765573d6000803e3d6000fd5b5050604051601f1901519150506001600160a01b03811661278e57600060019250925050612795565b9150600090505b94509492505050565b6000806001600160ff1b03831660ff84901c601b016127bf878288856126b1565b935093505050935093915050565b6001546001600160801b03166001600160a01b0385166127ff57604051622e076360e81b815260040160405180910390fd5b8361281d5760405163b562e8dd60e01b815260040160405180910390fd5b6001600160a01b038516600081815260056020908152604080832080546001600160801b031981166001600160401b038083168c0181169182176801000000000000000067ffffffffffffffff1990941690921783900481168c018116909202179091558584526004909252822080546001600160e01b031916909317600160a01b42909216919091021790915581905b8581101561292f5760405182906001600160a01b038916906000907fddf252ad1be2c89b69c2b068fc378daa952ba7f163c4a11628f55a4df523b3ef908290a48380156129055750612903600088848861220b565b155b15612923576040516368d2bf6b60e11b815260040160405180910390fd5b600191820191016128ae565b50600180546001600160801b0319166001600160801b0392909216919091179055612052565b8280546129619061307d565b90600052602060002090601f01602090048101928261298357600085556129c9565b82601f1061299c57805160ff19168380011785556129c9565b828001600101855582156129c9579182015b828111156129c95782518255916020019190600101906129ae565b506129d59291506129d9565b5090565b5b808211156129d557600081556001016129da565b60006001600160401b0380841115612a0857612a08613135565b604051601f8501601f19908116603f01168101908282118183101715612a3057612a30613135565b81604052809350858152868686011115612a4957600080fd5b858560208301376000602087830101525050509392505050565b80356001600160a01b0381168114611d0057600080fd5b80358015158114611d0057600080fd5b803560ff81168114611d0057600080fd5b600060208284031215612aac578081fd5b612ab582612a63565b9392505050565b60008060408385031215612ace578081fd5b612ad783612a63565b9150612ae560208401612a63565b90509250929050565b600080600060608486031215612b02578081fd5b612b0b84612a63565b9250612b1960208501612a63565b9150604084013590509250925092565b60008060008060808587031215612b3e578081fd5b612b4785612a63565b9350612b5560208601612a63565b92506040850135915060608501356001600160401b03811115612b76578182fd5b8501601f81018713612b86578182fd5b612b95878235602084016129ee565b91505092959194509250565b60008060408385031215612bb3578182fd5b612bbc83612a63565b9150612ae560208401612a7a565b60008060408385031215612bdc578182fd5b612be583612a63565b946020939093013593505050565b600080600060408486031215612c07578283fd5b83356001600160401b0380821115612c1d578485fd5b818601915086601f830112612c30578485fd5b813581811115612c3e578586fd5b8760208260051b8501011115612c52578586fd5b602092830195509350612c689186019050612a8a565b90509250925092565b600060208284031215612c82578081fd5b612ab582612a7a565b600060208284031215612c9c578081fd5b8135612ab58161314b565b600060208284031215612cb8578081fd5b8151612ab58161314b565b60008060208385031215612cd5578182fd5b82356001600160401b0380821115612ceb578384fd5b818501915085601f830112612cfe578384fd5b813581811115612d0c578485fd5b866020828501011115612d1d578485fd5b60209290920196919550909350505050565b600060208284031215612d40578081fd5b81356001600160401b03811115612d55578182fd5b8201601f81018413612d65578182fd5b612312848235602084016129ee565b600060208284031215612d85578081fd5b813561ffff81168114612ab5578182fd5b600060208284031215612da7578081fd5b5035919050565b600060208284031215612dbf578081fd5b612ab582612a8a565b60008151808452612de0816020860160208601613051565b601f01601f19169290920160200192915050565b8054600090600181811c9080831680612e0e57607f831692505b6020808410821415612e2e57634e487b7160e01b86526022600452602486fd5b818015612e425760018114612e5357612e80565b60ff19861689528489019650612e80565b60008881526020902060005b86811015612e785781548b820152908501908301612e5f565b505084890196505b50505050505092915050565b6000612e988286612df4565b8451612ea8818360208901613051565b612eb481830186612df4565b979650505050505050565b6001600160a01b0385811682528416602082015260408101839052608060608201819052600090612ef290830184612dc8565b9695505050505050565b602080825282518282018190526000919060409081850190868401855b82811015612f4a57815180516001600160801b0316855286015160ff16868501529284019290850190600101612f19565b5091979650505050505050565b602081526000612ab56020830184612dc8565b60208082526010908201526f574c206861732066696e69736865642160801b604082015260600190565b6020808252818101527f4f776e61626c653a2063616c6c6572206973206e6f7420746865206f776e6572604082015260600190565b600061ffff808316818516808303821115612fe657612fe6613109565b01949350505050565b6000821982111561300257613002613109565b500190565b6000826130165761301661311f565b500490565b600081600019048311821515161561303557613035613109565b500290565b60008282101561304c5761304c613109565b500390565b60005b8381101561306c578181015183820152602001613054565b838111156119ac5750506000910152565b600181811c9082168061309157607f821691505b602082108114156130b257634e487b7160e01b600052602260045260246000fd5b50919050565b600061ffff808316818114156130d0576130d0613109565b6001019392505050565b60006000198214156130ee576130ee613109565b5060010190565b6000826131045761310461311f565b500690565b634e487b7160e01b600052601160045260246000fd5b634e487b7160e01b600052601260045260246000fd5b634e487b7160e01b600052604160045260246000fd5b6001600160e01b03198116811461154f57600080fdfea2646970667358221220739605b4473e424dfa0b0e491d8b1aa165400ddb45700718a832650415c7bac664736f6c63430008040033",
    "sourcePath": "/Users/mahmoodmapara/Desktop/projectPXNTest/packages/hardhat/contracts/Ghost.sol",
    "compiler": {
        "name": "solc",
        "version": "0.8.4+commit.c7e474f2"
    },
    "functionHashes": {
        "BASE_URI()": "dbddb26a",
        "DA_ACTIVE()": "40348fbb",
        "DA_DECREMENT()": "b8129371",
        "DA_DECREMENT_FREQUENCY()": "996e52b5",
        "DA_ENDING_PRICE()": "97f65c08",
        "DA_FINAL_PRICE()": "f5998ed8",
        "DA_QUANTITY()": "ea18dc5c",
        "DA_STARTING_PRICE()": "f89d2e4d",
        "DA_STARTING_TIMESTAMP()": "78615c32",
        "DEV_FUND()": "f34184fa",
        "FOUNDER_ADD()": "8e98e9df",
        "PUBLIC_WL_MINTED()": "239b9640",
        "REVEALED()": "a76a9587",
        "WL_QUANTITY()": "165df4e5",
        "WL_STARTING_TIMESTAMP()": "33083ad7",
        "WLprice()": "e3979508",
        "approve(address,uint256)": "095ea7b3",
        "balanceOf(address)": "70a08231",
        "baseExtension()": "c6682862",
        "currentPrice()": "9d1b464a",
        "devMint()": "7c69e207",
        "getApproved(uint256)": "081812fc",
        "isApprovedForAll(address,address)": "e985e9c5",
        "mintDutchAuction(uint8)": "83e6848d",
        "mintWL(bytes)": "4bc0a305",
        "name()": "06fdde03",
        "owner()": "8da5cb5b",
        "ownerOf(uint256)": "6352211e",
        "readTeamMint(address)": "1f7b3a25",
        "renounceOwnership()": "715018a6",
        "safeTransferFrom(address,address,uint256)": "42842e0e",
        "safeTransferFrom(address,address,uint256,bytes)": "b88d4fde",
        "setApprovalForAll(address,bool)": "a22cb465",
        "setBaseURI(string)": "55f804b3",
        "setDutchActionActive(bool)": "094491fe",
        "setRevealData(bool)": "1f85bf05",
        "setSigners(address)": "b47876ea",
        "setStartTime(uint256)": "3e0a322d",
        "setTeamMint(address[],uint8)": "944c3065",
        "setWLSupply(uint16)": "2958f999",
        "supportsInterface(bytes4)": "01ffc9a7",
        "symbol()": "95d89b41",
        "teamMint(uint8)": "7b671780",
        "tokenByIndex(uint256)": "4f6ccce7",
        "tokenOfOwnerByIndex(address,uint256)": "2f745c59",
        "tokenURI(uint256)": "c87b56dd",
        "totalSupply()": "18160ddd",
        "transferFrom(address,address,uint256)": "23b872dd",
        "transferOwnership(address)": "f2fde38b",
        "userToHasMintedPublicWL(address)": "865bb409",
        "userToTokenBatch(address)": "15979e67",
        "userToTokenBatchPriceData(address,uint256)": "2b4519fb",
        "withdrawFunds()": "24600fc3"
    },
    "gasEstimates": {
        "creation": {
            "codeDepositCost": "2539000",
            "executionCost": "infinite",
            "totalCost": "infinite"
        },
        "external": {
            "BASE_URI()": "infinite",
            "DA_ACTIVE()": "1155",
            "DA_DECREMENT()": "1107",
            "DA_DECREMENT_FREQUENCY()": "1084",
            "DA_ENDING_PRICE()": "1062",
            "DA_FINAL_PRICE()": "1105",
            "DA_QUANTITY()": "1106",
            "DA_STARTING_PRICE()": "1127",
            "DA_STARTING_TIMESTAMP()": "1041",
            "DEV_FUND()": "1125",
            "FOUNDER_ADD()": "1116",
            "PUBLIC_WL_MINTED()": "1103",
            "REVEALED()": "1067",
            "WL_QUANTITY()": "1064",
            "WL_STARTING_TIMESTAMP()": "1107",
            "WLprice()": "1062",
            "approve(address,uint256)": "infinite",
            "balanceOf(address)": "1418",
            "baseExtension()": "infinite",
            "currentPrice()": "infinite",
            "devMint()": "infinite",
            "getApproved(uint256)": "3080",
            "isApprovedForAll(address,address)": "infinite",
            "mintDutchAuction(uint8)": "infinite",
            "mintWL(bytes)": "infinite",
            "name()": "infinite",
            "owner()": "1187",
            "ownerOf(uint256)": "infinite",
            "readTeamMint(address)": "1350",
            "renounceOwnership()": "23547",
            "safeTransferFrom(address,address,uint256)": "infinite",
            "safeTransferFrom(address,address,uint256,bytes)": "infinite",
            "setApprovalForAll(address,bool)": "infinite",
            "setBaseURI(string)": "infinite",
            "setDutchActionActive(bool)": "22082",
            "setRevealData(bool)": "22037",
            "setSigners(address)": "22101",
            "setStartTime(uint256)": "21198",
            "setTeamMint(address[],uint8)": "infinite",
            "setWLSupply(uint16)": "21150",
            "supportsInterface(bytes4)": "612",
            "symbol()": "infinite",
            "teamMint(uint8)": "infinite",
            "tokenByIndex(uint256)": "infinite",
            "tokenOfOwnerByIndex(address,uint256)": "infinite",
            "tokenURI(uint256)": "infinite",
            "totalSupply()": "1160",
            "transferFrom(address,address,uint256)": "infinite",
            "transferOwnership(address)": "23675",
            "userToHasMintedPublicWL(address)": "1354",
            "userToTokenBatch(address)": "infinite",
            "userToTokenBatchPriceData(address,uint256)": "2305",
            "withdrawFunds()": "infinite"
        }
    }
}