{
    "contractName": "PXN",
    "abi": [
        {
            "inputs": [],
            "stateMutability": "nonpayable",
            "type": "constructor"
        },
        {
            "inputs": [],
            "name": "ApprovalCallerNotOwnerNorApproved",
            "type": "error"
        },
        {
            "inputs": [],
            "name": "ApprovalQueryForNonexistentToken",
            "type": "error"
        },
        {
            "inputs": [],
            "name": "ApprovalToCurrentOwner",
            "type": "error"
        },
        {
            "inputs": [],
            "name": "ApproveToCaller",
            "type": "error"
        },
        {
            "inputs": [],
            "name": "BalanceQueryForZeroAddress",
            "type": "error"
        },
        {
            "inputs": [],
            "name": "MintToZeroAddress",
            "type": "error"
        },
        {
            "inputs": [],
            "name": "MintZeroQuantity",
            "type": "error"
        },
        {
            "inputs": [],
            "name": "OwnerIndexOutOfBounds",
            "type": "error"
        },
        {
            "inputs": [],
            "name": "OwnerQueryForNonexistentToken",
            "type": "error"
        },
        {
            "inputs": [],
            "name": "TokenIndexOutOfBounds",
            "type": "error"
        },
        {
            "inputs": [],
            "name": "TransferCallerNotOwnerNorApproved",
            "type": "error"
        },
        {
            "inputs": [],
            "name": "TransferFromIncorrectOwner",
            "type": "error"
        },
        {
            "inputs": [],
            "name": "TransferToNonERC721ReceiverImplementer",
            "type": "error"
        },
        {
            "inputs": [],
            "name": "TransferToZeroAddress",
            "type": "error"
        },
        {
            "anonymous": false,
            "inputs": [
                {
                    "indexed": true,
                    "internalType": "address",
                    "name": "owner",
                    "type": "address"
                },
                {
                    "indexed": true,
                    "internalType": "address",
                    "name": "approved",
                    "type": "address"
                },
                {
                    "indexed": true,
                    "internalType": "uint256",
                    "name": "tokenId",
                    "type": "uint256"
                }
            ],
            "name": "Approval",
            "type": "event"
        },
        {
            "anonymous": false,
            "inputs": [
                {
                    "indexed": true,
                    "internalType": "address",
                    "name": "owner",
                    "type": "address"
                },
                {
                    "indexed": true,
                    "internalType": "address",
                    "name": "operator",
                    "type": "address"
                },
                {
                    "indexed": false,
                    "internalType": "bool",
                    "name": "approved",
                    "type": "bool"
                }
            ],
            "name": "ApprovalForAll",
            "type": "event"
        },
        {
            "anonymous": false,
            "inputs": [
                {
                    "indexed": true,
                    "internalType": "address",
                    "name": "previousOwner",
                    "type": "address"
                },
                {
                    "indexed": true,
                    "internalType": "address",
                    "name": "newOwner",
                    "type": "address"
                }
            ],
            "name": "OwnershipTransferred",
            "type": "event"
        },
        {
            "anonymous": false,
            "inputs": [
                {
                    "indexed": true,
                    "internalType": "address",
                    "name": "from",
                    "type": "address"
                },
                {
                    "indexed": true,
                    "internalType": "address",
                    "name": "to",
                    "type": "address"
                },
                {
                    "indexed": true,
                    "internalType": "uint256",
                    "name": "tokenId",
                    "type": "uint256"
                }
            ],
            "name": "Transfer",
            "type": "event"
        },
        {
            "inputs": [],
            "name": "BASE_URI",
            "outputs": [
                {
                    "internalType": "string",
                    "name": "",
                    "type": "string"
                }
            ],
            "stateMutability": "view",
            "type": "function"
        },
        {
            "inputs": [],
            "name": "DA_DECREMENT",
            "outputs": [
                {
                    "internalType": "uint256",
                    "name": "",
                    "type": "uint256"
                }
            ],
            "stateMutability": "view",
            "type": "function"
        },
        {
            "inputs": [],
            "name": "DA_DECREMENT_FREQUENCY",
            "outputs": [
                {
                    "internalType": "uint256",
                    "name": "",
                    "type": "uint256"
                }
            ],
            "stateMutability": "view",
            "type": "function"
        },
        {
            "inputs": [],
            "name": "DA_ENDING_PRICE",
            "outputs": [
                {
                    "internalType": "uint256",
                    "name": "",
                    "type": "uint256"
                }
            ],
            "stateMutability": "view",
            "type": "function"
        },
        {
            "inputs": [],
            "name": "DA_FINAL_PRICE",
            "outputs": [
                {
                    "internalType": "uint256",
                    "name": "",
                    "type": "uint256"
                }
            ],
            "stateMutability": "view",
            "type": "function"
        },
        {
            "inputs": [],
            "name": "DA_QUANTITY",
            "outputs": [
                {
                    "internalType": "uint256",
                    "name": "",
                    "type": "uint256"
                }
            ],
            "stateMutability": "view",
            "type": "function"
        },
        {
            "inputs": [],
            "name": "DA_STARTING_PRICE",
            "outputs": [
                {
                    "internalType": "uint256",
                    "name": "",
                    "type": "uint256"
                }
            ],
            "stateMutability": "view",
            "type": "function"
        },
        {
            "inputs": [],
            "name": "DA_STARTING_TIMESTAMP",
            "outputs": [
                {
                    "internalType": "uint256",
                    "name": "",
                    "type": "uint256"
                }
            ],
            "stateMutability": "view",
            "type": "function"
        },
        {
            "inputs": [],
            "name": "DEV_FUND",
            "outputs": [
                {
                    "internalType": "address",
                    "name": "",
                    "type": "address"
                }
            ],
            "stateMutability": "view",
            "type": "function"
        },
        {
            "inputs": [],
            "name": "FOUNDER_ADD",
            "outputs": [
                {
                    "internalType": "address",
                    "name": "",
                    "type": "address"
                }
            ],
            "stateMutability": "view",
            "type": "function"
        },
        {
            "inputs": [],
            "name": "INITIAL_FUNDS_WITHDRAWN",
            "outputs": [
                {
                    "internalType": "bool",
                    "name": "",
                    "type": "bool"
                }
            ],
            "stateMutability": "view",
            "type": "function"
        },
        {
            "inputs": [],
            "name": "PUBLIC_WL_MINTED",
            "outputs": [
                {
                    "internalType": "uint16",
                    "name": "",
                    "type": "uint16"
                }
            ],
            "stateMutability": "view",
            "type": "function"
        },
        {
            "inputs": [],
            "name": "REMAINING_FUNDS_WITHDRAWN",
            "outputs": [
                {
                    "internalType": "bool",
                    "name": "",
                    "type": "bool"
                }
            ],
            "stateMutability": "view",
            "type": "function"
        },
        {
            "inputs": [],
            "name": "REVEALED",
            "outputs": [
                {
                    "internalType": "bool",
                    "name": "",
                    "type": "bool"
                }
            ],
            "stateMutability": "view",
            "type": "function"
        },
        {
            "inputs": [],
            "name": "WL_STARTING_TIMESTAMP",
            "outputs": [
                {
                    "internalType": "uint256",
                    "name": "",
                    "type": "uint256"
                }
            ],
            "stateMutability": "view",
            "type": "function"
        },
        {
            "inputs": [
                {
                    "internalType": "address",
                    "name": "to",
                    "type": "address"
                },
                {
                    "internalType": "uint256",
                    "name": "tokenId",
                    "type": "uint256"
                }
            ],
            "name": "approve",
            "outputs": [],
            "stateMutability": "nonpayable",
            "type": "function"
        },
        {
            "inputs": [
                {
                    "internalType": "address",
                    "name": "owner",
                    "type": "address"
                }
            ],
            "name": "balanceOf",
            "outputs": [
                {
                    "internalType": "uint256",
                    "name": "",
                    "type": "uint256"
                }
            ],
            "stateMutability": "view",
            "type": "function"
        },
        {
            "inputs": [],
            "name": "currentPrice",
            "outputs": [
                {
                    "internalType": "uint256",
                    "name": "",
                    "type": "uint256"
                }
            ],
            "stateMutability": "view",
            "type": "function"
        },
        {
            "inputs": [],
            "name": "devMint",
            "outputs": [],
            "stateMutability": "nonpayable",
            "type": "function"
        },
        {
            "inputs": [
                {
                    "internalType": "uint256",
                    "name": "tokenId",
                    "type": "uint256"
                }
            ],
            "name": "getApproved",
            "outputs": [
                {
                    "internalType": "address",
                    "name": "",
                    "type": "address"
                }
            ],
            "stateMutability": "view",
            "type": "function"
        },
        {
            "inputs": [
                {
                    "internalType": "address",
                    "name": "owner",
                    "type": "address"
                },
                {
                    "internalType": "address",
                    "name": "operator",
                    "type": "address"
                }
            ],
            "name": "isApprovedForAll",
            "outputs": [
                {
                    "internalType": "bool",
                    "name": "",
                    "type": "bool"
                }
            ],
            "stateMutability": "view",
            "type": "function"
        },
        {
            "inputs": [
                {
                    "internalType": "uint8",
                    "name": "quantity",
                    "type": "uint8"
                }
            ],
            "name": "mintDutchAuction",
            "outputs": [],
            "stateMutability": "payable",
            "type": "function"
        },
        {
            "inputs": [
                {
                    "internalType": "bytes",
                    "name": "signature",
                    "type": "bytes"
                }
            ],
            "name": "mintWL",
            "outputs": [],
            "stateMutability": "payable",
            "type": "function"
        },
        {
            "inputs": [],
            "name": "name",
            "outputs": [
                {
                    "internalType": "string",
                    "name": "",
                    "type": "string"
                }
            ],
            "stateMutability": "view",
            "type": "function"
        },
        {
            "inputs": [],
            "name": "owner",
            "outputs": [
                {
                    "internalType": "address",
                    "name": "",
                    "type": "address"
                }
            ],
            "stateMutability": "view",
            "type": "function"
        },
        {
            "inputs": [
                {
                    "internalType": "uint256",
                    "name": "tokenId",
                    "type": "uint256"
                }
            ],
            "name": "ownerOf",
            "outputs": [
                {
                    "internalType": "address",
                    "name": "",
                    "type": "address"
                }
            ],
            "stateMutability": "view",
            "type": "function"
        },
        {
            "inputs": [],
            "name": "refundExtraETH",
            "outputs": [],
            "stateMutability": "nonpayable",
            "type": "function"
        },
        {
            "inputs": [],
            "name": "renounceOwnership",
            "outputs": [],
            "stateMutability": "nonpayable",
            "type": "function"
        },
        {
            "inputs": [
                {
                    "internalType": "address",
                    "name": "from",
                    "type": "address"
                },
                {
                    "internalType": "address",
                    "name": "to",
                    "type": "address"
                },
                {
                    "internalType": "uint256",
                    "name": "tokenId",
                    "type": "uint256"
                }
            ],
            "name": "safeTransferFrom",
            "outputs": [],
            "stateMutability": "nonpayable",
            "type": "function"
        },
        {
            "inputs": [
                {
                    "internalType": "address",
                    "name": "from",
                    "type": "address"
                },
                {
                    "internalType": "address",
                    "name": "to",
                    "type": "address"
                },
                {
                    "internalType": "uint256",
                    "name": "tokenId",
                    "type": "uint256"
                },
                {
                    "internalType": "bytes",
                    "name": "_data",
                    "type": "bytes"
                }
            ],
            "name": "safeTransferFrom",
            "outputs": [],
            "stateMutability": "nonpayable",
            "type": "function"
        },
        {
            "inputs": [
                {
                    "internalType": "address",
                    "name": "operator",
                    "type": "address"
                },
                {
                    "internalType": "bool",
                    "name": "approved",
                    "type": "bool"
                }
            ],
            "name": "setApprovalForAll",
            "outputs": [],
            "stateMutability": "nonpayable",
            "type": "function"
        },
        {
            "inputs": [
                {
                    "internalType": "string",
                    "name": "_baseURI",
                    "type": "string"
                }
            ],
            "name": "setBaseURI",
            "outputs": [],
            "stateMutability": "nonpayable",
            "type": "function"
        },
        {
            "inputs": [
                {
                    "internalType": "bool",
                    "name": "_revealed",
                    "type": "bool"
                }
            ],
            "name": "setRevealData",
            "outputs": [],
            "stateMutability": "nonpayable",
            "type": "function"
        },
        {
            "inputs": [
                {
                    "internalType": "address",
                    "name": "signer",
                    "type": "address"
                }
            ],
            "name": "setSigners",
            "outputs": [],
            "stateMutability": "nonpayable",
            "type": "function"
        },
        {
            "inputs": [
                {
                    "internalType": "bytes4",
                    "name": "interfaceId",
                    "type": "bytes4"
                }
            ],
            "name": "supportsInterface",
            "outputs": [
                {
                    "internalType": "bool",
                    "name": "",
                    "type": "bool"
                }
            ],
            "stateMutability": "view",
            "type": "function"
        },
        {
            "inputs": [],
            "name": "symbol",
            "outputs": [
                {
                    "internalType": "string",
                    "name": "",
                    "type": "string"
                }
            ],
            "stateMutability": "view",
            "type": "function"
        },
        {
            "inputs": [
                {
                    "internalType": "uint256",
                    "name": "index",
                    "type": "uint256"
                }
            ],
            "name": "tokenByIndex",
            "outputs": [
                {
                    "internalType": "uint256",
                    "name": "",
                    "type": "uint256"
                }
            ],
            "stateMutability": "view",
            "type": "function"
        },
        {
            "inputs": [
                {
                    "internalType": "address",
                    "name": "owner",
                    "type": "address"
                },
                {
                    "internalType": "uint256",
                    "name": "index",
                    "type": "uint256"
                }
            ],
            "name": "tokenOfOwnerByIndex",
            "outputs": [
                {
                    "internalType": "uint256",
                    "name": "",
                    "type": "uint256"
                }
            ],
            "stateMutability": "view",
            "type": "function"
        },
        {
            "inputs": [
                {
                    "internalType": "uint256",
                    "name": "_tokenId",
                    "type": "uint256"
                }
            ],
            "name": "tokenURI",
            "outputs": [
                {
                    "internalType": "string",
                    "name": "",
                    "type": "string"
                }
            ],
            "stateMutability": "view",
            "type": "function"
        },
        {
            "inputs": [],
            "name": "totalSupply",
            "outputs": [
                {
                    "internalType": "uint256",
                    "name": "",
                    "type": "uint256"
                }
            ],
            "stateMutability": "view",
            "type": "function"
        },
        {
            "inputs": [
                {
                    "internalType": "address",
                    "name": "from",
                    "type": "address"
                },
                {
                    "internalType": "address",
                    "name": "to",
                    "type": "address"
                },
                {
                    "internalType": "uint256",
                    "name": "tokenId",
                    "type": "uint256"
                }
            ],
            "name": "transferFrom",
            "outputs": [],
            "stateMutability": "nonpayable",
            "type": "function"
        },
        {
            "inputs": [
                {
                    "internalType": "address",
                    "name": "newOwner",
                    "type": "address"
                }
            ],
            "name": "transferOwnership",
            "outputs": [],
            "stateMutability": "nonpayable",
            "type": "function"
        },
        {
            "inputs": [
                {
                    "internalType": "address",
                    "name": "",
                    "type": "address"
                }
            ],
            "name": "userToHasMintedMiceWL",
            "outputs": [
                {
                    "internalType": "bool",
                    "name": "",
                    "type": "bool"
                }
            ],
            "stateMutability": "view",
            "type": "function"
        },
        {
            "inputs": [
                {
                    "internalType": "address",
                    "name": "",
                    "type": "address"
                }
            ],
            "name": "userToHasMintedPublicWL",
            "outputs": [
                {
                    "internalType": "bool",
                    "name": "",
                    "type": "bool"
                }
            ],
            "stateMutability": "view",
            "type": "function"
        },
        {
            "inputs": [
                {
                    "internalType": "address",
                    "name": "user",
                    "type": "address"
                }
            ],
            "name": "userToTokenBatchLength",
            "outputs": [
                {
                    "internalType": "uint256",
                    "name": "",
                    "type": "uint256"
                }
            ],
            "stateMutability": "view",
            "type": "function"
        },
        {
            "inputs": [
                {
                    "internalType": "address",
                    "name": "",
                    "type": "address"
                },
                {
                    "internalType": "uint256",
                    "name": "",
                    "type": "uint256"
                }
            ],
            "name": "userToTokenBatchPriceData",
            "outputs": [
                {
                    "internalType": "uint128",
                    "name": "pricePaid",
                    "type": "uint128"
                },
                {
                    "internalType": "uint8",
                    "name": "quantityMinted",
                    "type": "uint8"
                }
            ],
            "stateMutability": "view",
            "type": "function"
        },
        {
            "inputs": [],
            "name": "withdrawFunds",
            "outputs": [],
            "stateMutability": "nonpayable",
            "type": "function"
        }
    ],
    "bytecode": "6080604052671bc16d674ec8000060085567016345785d8a000060095566b1a2bc2ec50000600a5561012c600b556362880f60600c819055610fa0600e55600f8054770e861ddda17f7c20996dc0868cacc200bc1985c000000000600160201b600160c01b0319909116179055601080546001600160a01b03191673bc77edd603bef4004c47a831fdda437cd906442e179055620000a1906201518062000239565b601155348015620000b157600080fd5b506040518060400160405280600a815260200169283937b532b1ba282c2760b11b81525060405180604001604052806003815260200162282c2760e91b8152506200010b620001056200013f60201b60201c565b62000143565b81516200012090600290602085019062000193565b5080516200013690600390602084019062000193565b5050506200029d565b3390565b600080546001600160a01b038381166001600160a01b0319831681178455604051919092169283917f8be0079c531659141344cd1fd0a4f28419497f9722a3daafe3b4186f6b6457e09190a35050565b828054620001a19062000260565b90600052602060002090601f016020900481019282620001c5576000855562000210565b82601f10620001e057805160ff191683800117855562000210565b8280016001018555821562000210579182015b8281111562000210578251825591602001919060010190620001f3565b506200021e92915062000222565b5090565b5b808211156200021e576000815560010162000223565b600082198211156200025b57634e487b7160e01b600052601160045260246000fd5b500190565b600181811c908216806200027557607f821691505b602082108114156200029757634e487b7160e01b600052602260045260246000fd5b50919050565b612d4580620002ad6000396000f3fe6080604052600436106102885760003560e01c8063865bb4091161015a578063b9765a1f116100c1578063e985e9c51161007a578063e985e9c5146107ae578063ea18dc5c146107f7578063f2fde38b1461080d578063f34184fa1461082d578063f5998ed81461084d578063f89d2e4d1461086357600080fd5b8063b9765a1f146106dd578063c0666e8d146106f2578063c4267c8d14610728578063c87b56dd14610749578063ca15d56514610769578063dbddb26a1461079957600080fd5b80639d1b464a116101135780639d1b464a14610638578063a22cb4651461064d578063a76a95871461066d578063b47876ea14610687578063b8129371146106a7578063b88d4fde146106bd57600080fd5b8063865bb409146105815780638da5cb5b146105b15780638e98e9df146105cf57806395d89b41146105f757806397f65c081461060c578063996e52b51461062257600080fd5b80632f745c59116101fe5780636352211e116101b75780636352211e146104ee57806370a082311461050e578063715018a61461052e57806378615c32146105435780637c69e2071461055957806383e6848d1461056e57600080fd5b80632f745c591461044557806333083ad71461046557806342842e0e1461047b5780634bc0a3051461049b5780634f6ccce7146104ae57806355f804b3146104ce57600080fd5b80631f85bf05116102505780631f85bf0514610361578063204e656b14610381578063239b9640146103a157806323b872dd146103cf57806324600fc3146103ef5780632b4519fb1461040457600080fd5b806301ffc9a71461028d57806306fdde03146102c2578063081812fc146102e4578063095ea7b31461031c57806318160ddd1461033e575b600080fd5b34801561029957600080fd5b506102ad6102a83660046126a0565b610879565b60405190151581526020015b60405180910390f35b3480156102ce57600080fd5b506102d76108e6565b6040516102b9919061271c565b3480156102f057600080fd5b506103046102ff36600461272f565b610978565b6040516001600160a01b0390911681526020016102b9565b34801561032857600080fd5b5061033c61033736600461275f565b6109bc565b005b34801561034a57600080fd5b50610353610a4a565b6040519081526020016102b9565b34801561036d57600080fd5b5061033c61037c366004612799565b610a69565b34801561038d57600080fd5b50600f546102ad9062010000900460ff1681565b3480156103ad57600080fd5b50600f546103bc9061ffff1681565b60405161ffff90911681526020016102b9565b3480156103db57600080fd5b5061033c6103ea3660046127b4565b610aaf565b3480156103fb57600080fd5b5061033c610aba565b34801561041057600080fd5b5061042461041f36600461275f565b610baf565b604080516001600160801b03909316835260ff9091166020830152016102b9565b34801561045157600080fd5b5061035361046036600461275f565b610bf2565b34801561047157600080fd5b5061035360115481565b34801561048757600080fd5b5061033c6104963660046127b4565b610cee565b61033c6104a93660046127f0565b610d09565b3480156104ba57600080fd5b506103536104c936600461272f565b61109b565b3480156104da57600080fd5b5061033c6104e93660046128ec565b611147565b3480156104fa57600080fd5b5061030461050936600461272f565b611184565b34801561051a57600080fd5b50610353610529366004612934565b611196565b34801561053a57600080fd5b5061033c6111e4565b34801561054f57600080fd5b50610353600c5481565b34801561056557600080fd5b5061033c61121a565b61033c61057c36600461294f565b6112c8565b34801561058d57600080fd5b506102ad61059c366004612934565b60136020526000908152604090205460ff1681565b3480156105bd57600080fd5b506000546001600160a01b0316610304565b3480156105db57600080fd5b50600f546103049064010000000090046001600160a01b031681565b34801561060357600080fd5b506102d761151f565b34801561061857600080fd5b5061035360095481565b34801561062e57600080fd5b50610353600b5481565b34801561064457600080fd5b5061035361152e565b34801561065957600080fd5b5061033c610668366004612972565b6115f4565b34801561067957600080fd5b506015546102ad9060ff1681565b34801561069357600080fd5b5061033c6106a2366004612934565b61168a565b3480156106b357600080fd5b50610353600a5481565b3480156106c957600080fd5b5061033c6106d83660046129a5565b6116d6565b3480156106e957600080fd5b5061033c611710565b3480156106fe57600080fd5b5061035361070d366004612934565b6001600160a01b031660009081526012602052604090205490565b34801561073457600080fd5b50600f546102ad906301000000900460ff1681565b34801561075557600080fd5b506102d761076436600461272f565b6118ab565b34801561077557600080fd5b506102ad610784366004612934565b60146020526000908152604090205460ff1681565b3480156107a557600080fd5b506102d7611982565b3480156107ba57600080fd5b506102ad6107c9366004612a20565b6001600160a01b03918216600090815260076020908152604080832093909416825291909152205460ff1690565b34801561080357600080fd5b50610353600e5481565b34801561081957600080fd5b5061033c610828366004612934565b611a10565b34801561083957600080fd5b50601054610304906001600160a01b031681565b34801561085957600080fd5b50610353600d5481565b34801561086f57600080fd5b5061035360085481565b60006001600160e01b031982166380ac58cd60e01b14806108aa57506001600160e01b03198216635b5e139f60e01b145b806108c557506001600160e01b0319821663780e9d6360e01b145b806108e057506301ffc9a760e01b6001600160e01b03198316145b92915050565b6060600280546108f590612a4a565b80601f016020809104026020016040519081016040528092919081815260200182805461092190612a4a565b801561096e5780601f106109435761010080835404028352916020019161096e565b820191906000526020600020905b81548152906001019060200180831161095157829003601f168201915b5050505050905090565b600061098382611aa8565b6109a0576040516333d1c03960e21b815260040160405180910390fd5b506000908152600660205260409020546001600160a01b031690565b60006109c782611184565b9050806001600160a01b0316836001600160a01b031614156109fc5760405163250fdee360e21b815260040160405180910390fd5b336001600160a01b03821614801590610a1c5750610a1a81336107c9565b155b15610a3a576040516367d9dca160e11b815260040160405180910390fd5b610a45838383611ade565b505050565b6001546001600160801b03600160801b82048116918116919091031690565b6000546001600160a01b03163314610a9c5760405162461bcd60e51b8152600401610a9390612a85565b60405180910390fd5b6015805460ff1916911515919091179055565b610a45838383611b3a565b6000546001600160a01b03163314610ae45760405162461bcd60e51b8152600401610a9390612a85565b600c54610af49062093a80612ad0565b421015610b0057600080fd5b600f54479064010000000090046001600160a01b03166108fc612710610b2884611388612ae8565b610b329190612b1d565b6040518115909202916000818181858888f19350505050158015610b5a573d6000803e3d6000fd5b506010546001600160a01b03166108fc612710610b7984611388612ae8565b610b839190612b1d565b6040518115909202916000818181858888f19350505050158015610bab573d6000803e3d6000fd5b5050565b60126020528160005260406000208181548110610bcb57600080fd5b6000918252602090912001546001600160801b0381169250600160801b900460ff16905082565b6000610bfd83611196565b8210610c1c576040516306ed618760e11b815260040160405180910390fd5b6001546001600160801b0316600080805b83811015610ce857600081815260046020908152604091829020825160608101845290546001600160a01b0381168252600160a01b81046001600160401b031692820192909252600160e01b90910460ff161580159282019290925290610c945750610ce0565b80516001600160a01b031615610ca957805192505b876001600160a01b0316836001600160a01b03161415610cde5786841415610cd7575093506108e092505050565b6001909301925b505b600101610c2d565b50600080fd5b610a45838383604051806020016040528060008152506116d6565b6000600d5411610d5b5760405162461bcd60e51b815260206004820152601a60248201527f447574636820616374696f6e206d757374206265206f766572210000000000006044820152606401610a93565b3360009081526013602052604090205460ff1615610dc75760405162461bcd60e51b8152602060048201526024808201527f43616e206f6e6c79206d696e74206f6e636520647572696e67207075626c696360448201526320574c2160e01b6064820152608401610a93565b601154421015610e195760405162461bcd60e51b815260206004820152601760248201527f574c20686173206e6f74207374617274656420796574210000000000000000006044820152606401610a93565b601154610e299062015180612ad0565b421115610e6b5760405162461bcd60e51b815260206004820152601060248201526f574c206861732066696e69736865642160801b6044820152606401610a93565b611770610e76610a4a565b610e81906001612ad0565b1115610ec55760405162461bcd60e51b81526020600482015260136024820152724d617820737570706c79206f6620363030302160681b6044820152606401610a93565b610f5b82828080601f016020809104026020016040519081016040528093929190818152602001838380828437600092019190915250506040517f19457468657265756d205369676e6564204d6573736167653a0a333200000000602082015233603c820152605c019150610f379050565b60405160208183030381529060405280519060200120611d5790919063ffffffff16565b6017546001600160a01b03908116911614610fb85760405162461bcd60e51b815260206004820152601860248201527f5369676e65722061646472657373206d69736d617463682e00000000000000006044820152606401610a93565b60006064600d54610fc99190612b1d565b610fdc906802b5e3af16b1880000612ae8565b90506704db732547630000811115610ff957506704db7325476300005b803410156110495760405162461bcd60e51b815260206004820181905260248201527f4d7573742073656e6420656e6f7567682065746820666f7220574c204d696e746044820152606401610a93565b336000908152601360205260408120805460ff19166001179055600f805461ffff169161107583612b31565b91906101000a81548161ffff021916908361ffff16021790555050610a45336001611d7b565b6001546000906001600160801b031681805b8281101561112d57600081815260046020908152604091829020825160608101845290546001600160a01b0381168252600160a01b81046001600160401b031692820192909252600160e01b90910460ff16151591810182905290611124578583141561111d5750949350505050565b6001909201915b506001016110ad565b506040516329c8c00760e21b815260040160405180910390fd5b6000546001600160a01b031633146111715760405162461bcd60e51b8152600401610a9390612a85565b8051610bab9060169060208401906125f1565b600061118f82611d95565b5192915050565b60006001600160a01b0382166111bf576040516323d3ad8160e21b815260040160405180910390fd5b506001600160a01b03166000908152600560205260409020546001600160401b031690565b6000546001600160a01b0316331461120e5760405162461bcd60e51b8152600401610a9390612a85565b6112186000611eb9565b565b6000546001600160a01b031633146112445760405162461bcd60e51b8152600401610a9390612a85565b6011546112549062015180612ad0565b4210156112965760405162461bcd60e51b815260206004820152601060248201526f574c206861732066696e69736865642160801b6044820152606401610a93565b60006112a0610a4a565b6112ac90612710612b53565b6010549091506112c5906001600160a01b031682611d7b565b50565b600c544210156113105760405162461bcd60e51b8152602060048201526013602482015272444120686173206e6f7420737461727465642160681b6044820152606401610a93565b6011544211156113535760405162461bcd60e51b815260206004820152600e60248201526d1110481a5cc8199a5b9a5cda195960921b6044820152606401610a93565b60008160ff16118015611369575060038160ff16105b6113b55760405162461bcd60e51b815260206004820152601960248201527f43616e206f6e6c79206d696e74206d61782032204e46547321000000000000006044820152606401610a93565b60006113bf61152e565b90506113ce8160ff8416612ae8565b34101561141d5760405162461bcd60e51b815260206004820152601860248201527f446964206e6f742073656e6420656e6f756768206574682e00000000000000006044820152606401610a93565b600e548260ff1661142c610a4a565b6114369190612ad0565b11156114845760405162461bcd60e51b815260206004820152601a60248201527f4d617820737570706c7920666f722044412072656163686564210000000000006044820152606401610a93565b600e548260ff16611493610a4a565b61149d9190612ad0565b14156114a957600d8190555b33600081815260126020908152604080832081518083019092526001600160801b03348116835260ff80891684860181815284546001810186559488529590962093519390920180549451909216600160801b026001600160881b0319909416921691909117919091179055610bab9190611d7b565b6060600380546108f590612a4a565b6000600c544210156115785760405162461bcd60e51b8152602060048201526013602482015272444120686173206e6f7420737461727465642160681b6044820152606401610a93565b600d54156115875750600d5490565b6000600c54426115979190612b53565b90506000600b54826115a99190612b1d565b90506000600a54826115bb9190612ae8565b90506009546008546115cd9190612b53565b81106115de57600954935050505090565b806008546115ec9190612b53565b935050505090565b6001600160a01b03821633141561161e5760405163b06307db60e01b815260040160405180910390fd5b3360008181526007602090815260408083206001600160a01b03871680855290835292819020805460ff191686151590811790915590519081529192917f17307eab39ab6107e8899845ad3d59bd9653f200f220920489ca2b5937696c31910160405180910390a35050565b6000546001600160a01b031633146116b45760405162461bcd60e51b8152600401610a9390612a85565b601780546001600160a01b0319166001600160a01b0392909216919091179055565b6116e1848484611b3a565b6116ed84848484611f09565b61170a576040516368d2bf6b60e11b815260040160405180910390fd5b50505050565b6000600d54116117625760405162461bcd60e51b815260206004820152601a60248201527f447574636820616374696f6e206d757374206265206f766572210000000000006044820152606401610a93565b336000908152601260205260408120545b801561187d57600d54336000908152601260205260408120909190611799600185612b53565b815481106117a9576117a9612b6a565b6000918252602090912001546117c99190600160801b900460ff16612ae8565b3360009081526012602052604081209192509082906117e9600186612b53565b815481106117f9576117f9612b6a565b60009182526020909120015461181891906001600160801b0316612b53565b3360009081526012602052604090208054919250908061183a5761183a612b80565b600082815260209020810160001990810180546001600160881b03191690550190556118668185612ad0565b93505050808061187590612b96565b915050611773565b50604051339082156108fc029083906000818181858888f19350505050158015610bab573d6000803e3d6000fd5b60155460609060ff16156118eb5760166118c483612018565b6040516020016118d5929190612bc9565b6040516020818303038152906040529050919050565b601680546118f890612a4a565b80601f016020809104026020016040519081016040528092919081815260200182805461192490612a4a565b80156119715780601f1061194657610100808354040283529160200191611971565b820191906000526020600020905b81548152906001019060200180831161195457829003601f168201915b50505050509050919050565b919050565b6016805461198f90612a4a565b80601f01602080910402602001604051908101604052809291908181526020018280546119bb90612a4a565b8015611a085780601f106119dd57610100808354040283529160200191611a08565b820191906000526020600020905b8154815290600101906020018083116119eb57829003601f168201915b505050505081565b6000546001600160a01b03163314611a3a5760405162461bcd60e51b8152600401610a9390612a85565b6001600160a01b038116611a9f5760405162461bcd60e51b815260206004820152602660248201527f4f776e61626c653a206e6577206f776e657220697320746865207a65726f206160448201526564647265737360d01b6064820152608401610a93565b6112c581611eb9565b6001546000906001600160801b0316821080156108e0575050600090815260046020526040902054600160e01b900460ff161590565b60008281526006602052604080822080546001600160a01b0319166001600160a01b0387811691821790925591518593918516917f8c5be1e5ebec7d5bd14f71427d1e84f3dd0314c0f7b2291e5b200ac8c7c3b92591a4505050565b6000611b4582611d95565b80519091506000906001600160a01b0316336001600160a01b03161480611b7357508151611b7390336107c9565b80611b8e575033611b8384610978565b6001600160a01b0316145b905080611bae57604051632ce44b5f60e11b815260040160405180910390fd5b846001600160a01b031682600001516001600160a01b031614611be35760405162a1148160e81b815260040160405180910390fd5b6001600160a01b038416611c0a57604051633a954ecd60e21b815260040160405180910390fd5b611c1a6000848460000151611ade565b6001600160a01b038581166000908152600560209081526040808320805467ffffffffffffffff198082166001600160401b0392831660001901831617909255898616808652838620805493841693831660019081018416949094179055898652600490945282852080546001600160e01b031916909417600160a01b429092169190910217909255908601808352912054909116611d0d576001546001600160801b0316811015611d0d57825160008281526004602090815260409091208054918601516001600160401b0316600160a01b026001600160e01b03199092166001600160a01b03909316929092171790555b5082846001600160a01b0316866001600160a01b03167fddf252ad1be2c89b69c2b068fc378daa952ba7f163c4a11628f55a4df523b3ef60405160405180910390a45b5050505050565b6000806000611d668585612115565b91509150611d7381612185565b509392505050565b610bab828260405180602001604052806000815250612340565b604080516060810182526000808252602082018190529181019190915260015482906001600160801b0316811015611ea057600081815260046020908152604091829020825160608101845290546001600160a01b0381168252600160a01b81046001600160401b031692820192909252600160e01b90910460ff16151591810182905290611e9e5780516001600160a01b031615611e35579392505050565b5060001901600081815260046020908152604091829020825160608101845290546001600160a01b038116808352600160a01b82046001600160401b031693830193909352600160e01b900460ff1615159281019290925215611e99579392505050565b611e35565b505b604051636f96cda160e11b815260040160405180910390fd5b600080546001600160a01b038381166001600160a01b0319831681178455604051919092169283917f8be0079c531659141344cd1fd0a4f28419497f9722a3daafe3b4186f6b6457e09190a35050565b60006001600160a01b0384163b1561200c57604051630a85bd0160e11b81526001600160a01b0385169063150b7a0290611f4d903390899088908890600401612c70565b602060405180830381600087803b158015611f6757600080fd5b505af1925050508015611f97575060408051601f3d908101601f19168201909252611f9491810190612cad565b60015b611ff2573d808015611fc5576040519150601f19603f3d011682016040523d82523d6000602084013e611fca565b606091505b508051611fea576040516368d2bf6b60e11b815260040160405180910390fd5b805181602001fd5b6001600160e01b031916630a85bd0160e11b149050612010565b5060015b949350505050565b60608161203c5750506040805180820190915260018152600360fc1b602082015290565b8160005b8115612066578061205081612cca565b915061205f9050600a83612b1d565b9150612040565b6000816001600160401b0381111561208057612080612861565b6040519080825280601f01601f1916602001820160405280156120aa576020820181803683370190505b5090505b8415612010576120bf600183612b53565b91506120cc600a86612ce5565b6120d7906030612ad0565b60f81b8183815181106120ec576120ec612b6a565b60200101906001600160f81b031916908160001a90535061210e600a86612b1d565b94506120ae565b60008082516041141561214c5760208301516040840151606085015160001a6121408782858561234d565b9450945050505061217e565b825160401415612176576020830151604084015161216b86838361243a565b93509350505061217e565b506000905060025b9250929050565b600081600481111561219957612199612cf9565b14156121a25750565b60018160048111156121b6576121b6612cf9565b14156122045760405162461bcd60e51b815260206004820152601860248201527f45434453413a20696e76616c6964207369676e617475726500000000000000006044820152606401610a93565b600281600481111561221857612218612cf9565b14156122665760405162461bcd60e51b815260206004820152601f60248201527f45434453413a20696e76616c6964207369676e6174757265206c656e677468006044820152606401610a93565b600381600481111561227a5761227a612cf9565b14156122d35760405162461bcd60e51b815260206004820152602260248201527f45434453413a20696e76616c6964207369676e6174757265202773272076616c604482015261756560f01b6064820152608401610a93565b60048160048111156122e7576122e7612cf9565b14156112c55760405162461bcd60e51b815260206004820152602260248201527f45434453413a20696e76616c6964207369676e6174757265202776272076616c604482015261756560f01b6064820152608401610a93565b610a458383836001612469565b6000807f7fffffffffffffffffffffffffffffff5d576e7357a4501ddfe92f46681b20a08311156123845750600090506003612431565b8460ff16601b1415801561239c57508460ff16601c14155b156123ad5750600090506004612431565b6040805160008082526020820180845289905260ff881692820192909252606081018690526080810185905260019060a0016020604051602081039080840390855afa158015612401573d6000803e3d6000fd5b5050604051601f1901519150506001600160a01b03811661242a57600060019250925050612431565b9150600090505b94509492505050565b6000806001600160ff1b03831660ff84901c601b0161245b8782888561234d565b935093505050935093915050565b6001546001600160801b03166001600160a01b03851661249b57604051622e076360e81b815260040160405180910390fd5b836124b95760405163b562e8dd60e01b815260040160405180910390fd5b6001600160a01b038516600081815260056020908152604080832080546001600160801b031981166001600160401b038083168c0181169182176801000000000000000067ffffffffffffffff1990941690921783900481168c018116909202179091558584526004909252822080546001600160e01b031916909317600160a01b42909216919091021790915581905b858110156125cb5760405182906001600160a01b038916906000907fddf252ad1be2c89b69c2b068fc378daa952ba7f163c4a11628f55a4df523b3ef908290a48380156125a1575061259f6000888488611f09565b155b156125bf576040516368d2bf6b60e11b815260040160405180910390fd5b6001918201910161254a565b50600180546001600160801b0319166001600160801b0392909216919091179055611d50565b8280546125fd90612a4a565b90600052602060002090601f01602090048101928261261f5760008555612665565b82601f1061263857805160ff1916838001178555612665565b82800160010185558215612665579182015b8281111561266557825182559160200191906001019061264a565b50612671929150612675565b5090565b5b808211156126715760008155600101612676565b6001600160e01b0319811681146112c557600080fd5b6000602082840312156126b257600080fd5b81356126bd8161268a565b9392505050565b60005b838110156126df5781810151838201526020016126c7565b8381111561170a5750506000910152565b600081518084526127088160208601602086016126c4565b601f01601f19169290920160200192915050565b6020815260006126bd60208301846126f0565b60006020828403121561274157600080fd5b5035919050565b80356001600160a01b038116811461197d57600080fd5b6000806040838503121561277257600080fd5b61277b83612748565b946020939093013593505050565b8035801515811461197d57600080fd5b6000602082840312156127ab57600080fd5b6126bd82612789565b6000806000606084860312156127c957600080fd5b6127d284612748565b92506127e060208501612748565b9150604084013590509250925092565b6000806020838503121561280357600080fd5b82356001600160401b038082111561281a57600080fd5b818501915085601f83011261282e57600080fd5b81358181111561283d57600080fd5b86602082850101111561284f57600080fd5b60209290920196919550909350505050565b634e487b7160e01b600052604160045260246000fd5b60006001600160401b038084111561289157612891612861565b604051601f8501601f19908116603f011681019082821181831017156128b9576128b9612861565b816040528093508581528686860111156128d257600080fd5b858560208301376000602087830101525050509392505050565b6000602082840312156128fe57600080fd5b81356001600160401b0381111561291457600080fd5b8201601f8101841361292557600080fd5b61201084823560208401612877565b60006020828403121561294657600080fd5b6126bd82612748565b60006020828403121561296157600080fd5b813560ff811681146126bd57600080fd5b6000806040838503121561298557600080fd5b61298e83612748565b915061299c60208401612789565b90509250929050565b600080600080608085870312156129bb57600080fd5b6129c485612748565b93506129d260208601612748565b92506040850135915060608501356001600160401b038111156129f457600080fd5b8501601f81018713612a0557600080fd5b612a1487823560208401612877565b91505092959194509250565b60008060408385031215612a3357600080fd5b612a3c83612748565b915061299c60208401612748565b600181811c90821680612a5e57607f821691505b60208210811415612a7f57634e487b7160e01b600052602260045260246000fd5b50919050565b6020808252818101527f4f776e61626c653a2063616c6c6572206973206e6f7420746865206f776e6572604082015260600190565b634e487b7160e01b600052601160045260246000fd5b60008219821115612ae357612ae3612aba565b500190565b6000816000190483118215151615612b0257612b02612aba565b500290565b634e487b7160e01b600052601260045260246000fd5b600082612b2c57612b2c612b07565b500490565b600061ffff80831681811415612b4957612b49612aba565b6001019392505050565b600082821015612b6557612b65612aba565b500390565b634e487b7160e01b600052603260045260246000fd5b634e487b7160e01b600052603160045260246000fd5b600081612ba557612ba5612aba565b506000190190565b60008151612bbf8185602086016126c4565b9290920192915050565b600080845481600182811c915080831680612be557607f831692505b6020808410821415612c0557634e487b7160e01b86526022600452602486fd5b818015612c195760018114612c2a57612c57565b60ff19861689528489019650612c57565b60008b81526020902060005b86811015612c4f5781548b820152908501908301612c36565b505084890196505b505050505050612c678185612bad565b95945050505050565b6001600160a01b0385811682528416602082015260408101839052608060608201819052600090612ca3908301846126f0565b9695505050505050565b600060208284031215612cbf57600080fd5b81516126bd8161268a565b6000600019821415612cde57612cde612aba565b5060010190565b600082612cf457612cf4612b07565b500690565b634e487b7160e01b600052602160045260246000fdfea2646970667358221220f9996480dc305d6371caa3bd03d690c5859b2a36dad3ae9422b974cd5cc397ca64736f6c63430008090033",
    "sourcePath": "/Users/mahmoodmapara/Desktop/projectPXNTest/packages/hardhat/contracts/PXN.sol",
    "compiler": {
        "name": "solc",
        "version": "0.8.9+commit.e5eed63a"
    },
    "functionHashes": {
        "BASE_URI()": "dbddb26a",
        "DA_DECREMENT()": "b8129371",
        "DA_DECREMENT_FREQUENCY()": "996e52b5",
        "DA_ENDING_PRICE()": "97f65c08",
        "DA_FINAL_PRICE()": "f5998ed8",
        "DA_QUANTITY()": "ea18dc5c",
        "DA_STARTING_PRICE()": "f89d2e4d",
        "DA_STARTING_TIMESTAMP()": "78615c32",
        "DEV_FUND()": "f34184fa",
        "FOUNDER_ADD()": "8e98e9df",
        "INITIAL_FUNDS_WITHDRAWN()": "204e656b",
        "PUBLIC_WL_MINTED()": "239b9640",
        "REMAINING_FUNDS_WITHDRAWN()": "c4267c8d",
        "REVEALED()": "a76a9587",
        "WL_STARTING_TIMESTAMP()": "33083ad7",
        "approve(address,uint256)": "095ea7b3",
        "balanceOf(address)": "70a08231",
        "currentPrice()": "9d1b464a",
        "devMint()": "7c69e207",
        "getApproved(uint256)": "081812fc",
        "isApprovedForAll(address,address)": "e985e9c5",
        "mintDutchAuction(uint8)": "83e6848d",
        "mintWL(bytes)": "4bc0a305",
        "name()": "06fdde03",
        "owner()": "8da5cb5b",
        "ownerOf(uint256)": "6352211e",
        "refundExtraETH()": "b9765a1f",
        "renounceOwnership()": "715018a6",
        "safeTransferFrom(address,address,uint256)": "42842e0e",
        "safeTransferFrom(address,address,uint256,bytes)": "b88d4fde",
        "setApprovalForAll(address,bool)": "a22cb465",
        "setBaseURI(string)": "55f804b3",
        "setRevealData(bool)": "1f85bf05",
        "setSigners(address)": "b47876ea",
        "supportsInterface(bytes4)": "01ffc9a7",
        "symbol()": "95d89b41",
        "tokenByIndex(uint256)": "4f6ccce7",
        "tokenOfOwnerByIndex(address,uint256)": "2f745c59",
        "tokenURI(uint256)": "c87b56dd",
        "totalSupply()": "18160ddd",
        "transferFrom(address,address,uint256)": "23b872dd",
        "transferOwnership(address)": "f2fde38b",
        "userToHasMintedMiceWL(address)": "ca15d565",
        "userToHasMintedPublicWL(address)": "865bb409",
        "userToTokenBatchLength(address)": "c0666e8d",
        "userToTokenBatchPriceData(address,uint256)": "2b4519fb",
        "withdrawFunds()": "24600fc3"
    },
    "gasEstimates": {
        "creation": {
            "codeDepositCost": "2317800",
            "executionCost": "infinite",
            "totalCost": "infinite"
        },
        "external": {
            "BASE_URI()": "infinite",
            "DA_DECREMENT()": "2428",
            "DA_DECREMENT_FREQUENCY()": "2451",
            "DA_ENDING_PRICE()": "2429",
            "DA_FINAL_PRICE()": "2427",
            "DA_QUANTITY()": "2361",
            "DA_STARTING_PRICE()": "2449",
            "DA_STARTING_TIMESTAMP()": "2406",
            "DEV_FUND()": "2447",
            "FOUNDER_ADD()": "2438",
            "INITIAL_FUNDS_WITHDRAWN()": "2378",
            "PUBLIC_WL_MINTED()": "2403",
            "REMAINING_FUNDS_WITHDRAWN()": "2399",
            "REVEALED()": "2388",
            "WL_STARTING_TIMESTAMP()": "2363",
            "approve(address,uint256)": "infinite",
            "balanceOf(address)": "2674",
            "currentPrice()": "infinite",
            "devMint()": "infinite",
            "getApproved(uint256)": "6980",
            "isApprovedForAll(address,address)": "infinite",
            "mintDutchAuction(uint8)": "infinite",
            "mintWL(bytes)": "infinite",
            "name()": "infinite",
            "owner()": "2399",
            "ownerOf(uint256)": "infinite",
            "refundExtraETH()": "infinite",
            "renounceOwnership()": "28203",
            "safeTransferFrom(address,address,uint256)": "infinite",
            "safeTransferFrom(address,address,uint256,bytes)": "infinite",
            "setApprovalForAll(address,bool)": "infinite",
            "setBaseURI(string)": "infinite",
            "setRevealData(bool)": "26715",
            "setSigners(address)": "26822",
            "supportsInterface(bytes4)": "612",
            "symbol()": "infinite",
            "tokenByIndex(uint256)": "infinite",
            "tokenOfOwnerByIndex(address,uint256)": "infinite",
            "tokenURI(uint256)": "infinite",
            "totalSupply()": "2504",
            "transferFrom(address,address,uint256)": "infinite",
            "transferOwnership(address)": "28397",
            "userToHasMintedMiceWL(address)": "2653",
            "userToHasMintedPublicWL(address)": "2566",
            "userToTokenBatchLength(address)": "2604",
            "userToTokenBatchPriceData(address,uint256)": "4993",
            "withdrawFunds()": "infinite"
        }
    }
}